:020000040000FA
:1000000000710020A5030000AD0300001D61000089
:10001000B1030000B3030000B503000000000000BE
:10002000000000000000000000000000B703000016
:10003000B903000000000000BB030000BD03000086
:10004000BF030000C1030000C3030000C50300009C
:10005000C7030000C9030000CB030000CD0300006C
:10006000CF030000D1030000D3030000D50300003C
:10007000D7030000D9030000DB030000DD0300000C
:10008000DF030000E1030000E3030000E5030000DC
:10009000E7030000E9030000EB030000ED030000AC
:1000A000EF030000F1030000F3030000F50300007C
:1000B000F7030000F9030000FB030000FD0300004C
:1000C000FF03000001040000030400000504000019
:1000D00007040000090400000B0400000D040000E8
:1000E0000F040000110400000000000013040000D1
:1000F0001504000017040000190400001B04000090
:100100001D0400001F04000021040000230400005F
:10011000000000000000000025040000270400008B
:10012000290400002B0400002D0400002F0400000F
:1001300031040000330400003504000037040000DF
:1001400000000000000000000000000000000000AF
:10015000390400003B0400003D0400003F0400009F
:10016000000000000000000000000000000000008F
:10017000000000000000000000000000000000007F
:10018000000000000000000000000000000000006F
:10019000000000000000000000000000000000005F
:1001A000000000000000000000000000000000004F
:1001B000410400004304000045040000470400001F
:1001C000490400004B0400004D0400004F040000EF
:1001D00051040000530400005504000057040000BF
:1001E000590400005B0400005D04000000000000F2
:1001F000000000005F0400006104000063040000D0
:10020000650400006704000000000000000000001A
:10021000690400006B0400006D0400006F0400001E
:1002200071040000730400007504000077040000EE
:10023000790400007B0400007D0400007F040000BE
:10024000810400008304000085040000870400008E
:10025000890400008B0400008D0400008F0400005E
:1002600091040000930400009504000000F002F8DF
:1002700000F070F80AA090E8000C82448344AAF1D0
:100280000107DA4501D100F065F8AFF2090EBAE8CE
:100290000F0013F0010F18BFFB1A43F001031847BA
:1002A00024F5020044F502000A444FF0000C10F857
:1002B000013B13F0070408BF10F8014B1D1108BFE4
:1002C00010F8015B641E05D010F8016B641E01F884
:1002D000016BF9D113F0080F1EBF10F8014BAD1CD4
:1002E0000C1B09D16D1E58BF01F801CBFAD505E0F2
:1002F00014F8016B01F8016B6D1EF9D59142D6D34C
:10030000704700000023002400250026103A28BF73
:1003100078C1FBD8520728BF30C148BF0B60704777
:1003200066292AF05D85642900F03C820020704730
:100330001FB52AF035FC9DE8030000F043FC00F0F7
:10034000A1FE04000020002128F07CFFE0601FBD1A
:1003500010B510BD00F0EAFF1146FFF7E9FF1DF0F0
:1003600087FF01F09BF903B4FFF7F2FF03BC17F01E
:10037000C3F800000138FDD170470000EFF3108092
:1003800072B67047EFF310807047EFF3108062B6DB
:10039000704730BF704780F311887047EFF31180CA
:1003A000704700003F4880473F480047FEE7FEE7B0
:1003B000FEE7FEE7FEE7FEE7FEE7FEE7FEE7FEE715
:1003C000FEE7FEE7FEE7FEE7FEE7FEE7FEE7FEE705
:1003D000FEE7FEE7FEE7FEE7FEE7FEE7FEE7FEE7F5
:1003E000FEE7FEE7FEE7FEE7FEE7FEE7FEE7FEE7E5
:1003F000FEE7FEE7FEE7FEE7FEE7FEE7FEE7FEE7D5
:10040000FEE7FEE7FEE7FEE7FEE7FEE7FEE7FEE7C4
:10041000FEE7FEE7FEE7FEE7FEE7FEE7FEE7FEE7B4
:10042000FEE7FEE7FEE7FEE7FEE7FEE7FEE7FEE7A4
:10043000FEE7FEE7FEE7FEE7FEE7FEE7FEE7FEE794
:10044000FEE7FEE7FEE7FEE7FEE7FEE7FEE7FEE784
:10045000FEE7FEE7FEE7FEE7FEE7FEE7FEE7FEE774
:10046000FEE7FEE7FEE7FEE7FEE7FEE7FEE7FEE764
:10047000FEE7FEE7FEE7FEE7FEE7FEE7FEE7FEE754
:10048000FEE7FEE7FEE7FEE7FEE7FEE7FEE7FEE744
:10049000FEE7FEE7FEE7000004480549054A064B73
:1004A00070470000DD6D01006D0200000064002057
:1004B000007100200067002000670020B5EEC00A30
:1004C000F1EE10FA07D2DFED1E0AB4EEE00AF1EE0B
:1004D00010FAA8BF7047DFED1B0AB5EEC00A60EE48
:1004E000200ABDEEE01A11EE100AF1EE10FA38BF44
:1004F000401E00EE100A1549F7EE001AB8EEC00AC9
:1005000030EEC00ADFED100A60EE200ABCEEE00A11
:1005100010EE100AC0F3080000EE100A01EB800094
:10052000B8EE400A90ED011A70EEC00A90ED000A94
:1005300071EEE01A21EE800A00EE810A7047000099
:10054000CD024CB483F9223E00000044A4B802005E
:10055000DFED460A60EE200AF5EEC00AF1EE10FA71
:1005600038BFF1EE600ABDEEE01ADFF808C1F7EE21
:10057000004AB0EE085AB8EEC11AB5EEC00A70EEE5
:10058000C10A9FED3B1A20EE811AFCEEC10A10EE63
:10059000902AC2F3080200EE902A02F180030CEBCD
:1005A0008202F8EE600AD2ED001AC3F308030CEBE6
:1005B0008303F1EE612A71EE600AD2ED011A93ED28
:1005C000001A93ED012AF1EE613A74EEE01A32EE70
:1005D000413A61EE811A40EE821A32EEA32ADFED33
:1005E000261A22EE214AB0EE002A42EE223A02EE0C
:1005F000434A23EE053A03EEE13A00EE843A34EE44
:10060000E04A20EE833A02EEA13A00EE831A81ED31
:10061000001A92ED001AD2ED013AD3ED002A24EE31
:10062000014A93ED013A00EEA34A32EE834A73EE9B
:10063000C13A02EE223A24EE214A02EE634A63EE08
:10064000853A43EE613A40EE843A20EEA32A02EE68
:10065000A12A00EE821AF1EE10FA80ED001A3CBFDA
:10066000B1EE410A80ED000A70470000610B363B95
:1006700000000044A4B80200DB0F493C704770B58D
:10068000064600F083FA056806F10B0020F0070427
:10069000B4429CBF002070BD2B466A68BAB1106896
:1006A000A04210D304F1080188423CBF5068586052
:1006B00007D35168101941601168091B0160586027
:1006C0001460101D70BD13465268002AE7D1214600
:1006D000284600F063FA0028DED170BD70B50446EC
:1006E000051F00F053FA0068002C14BF446870BD69
:1006F000002C18BFAC423CBF20466468F8D30168A8
:100700000A18AA4218BF456003D12A680546114459
:10071000016028684119A1421CBF6C6070BD61680E
:10072000696021680844286070BD00000FB41CB5E2
:10073000074B06AA7B4469460090059800F085FCAB
:100740000020694600F094FC1CBC5DF814FB00001E
:100750003909000070B5044685690068C10601D5F5
:10076000302600E02026C00707D070BDD4E9012163
:1007700030469047206A401C20626D1EF6D570BD41
:1007800070B5044685690078C00707D170BDD4E90B
:10079000012120209047206A401C20626D1EF6D562
:1007A00070BD00002DE9F04106460024106875294F
:1007B000314616A510D0AFF30080002802DA40427F
:1007C00013A507E031688A0701D512A502E04907A1
:1007D00004D511A5012401E0AFF3008000210A2215
:1007E00006F1240709E0B0FBF2FCB0FBF2F302FBD8
:1007F0001C00303078541846491C0028F3D1234699
:100800002A463046BDE8F04100F01DBA0000000065
:100810002D0000002B000000200000002DE9F04713
:100820004FF0000A89460446C0F820A02046E1683F
:100830008847002876D0252806D0D4E901219047A2
:10084000206A401C2062F1E7E168204600258847C5
:10085000C4F81CA006460027C4F818A02A2E09D008
:10086000304628F07BF838B304EB8708303EC8F8F0
:10087000186019E059F8041B204604EB87029161C7
:10088000E1688847012F064618D1E069002820DA80
:1008900025F020051DE0D8F8180000EB800006EBDD
:1008A00040003038C8F818002046E16888470646FE
:1008B00028F054F80028EED1012F0AD02E2E08D1AE
:1008C0002046E16888477F1C0646022F45F0200538
:1008D000C4DBA069002803DA404245F00105A061AD
:1008E000E80701D025F01005B6B1A6F1410019289E
:1008F00002D8203645F400654A4631462046256038
:100900004D46FFF70DFD58B1012806D0ED1D25F02D
:10091000070000F1080989E704E005F1040985E70B
:1009200030468AE7206ABDE8F08740EA010310B547
:100930009B070FD1042A0DD310C808C9121F9C426F
:10094000F8D020BA19BA884201D9012010BD4FF061
:10095000FF3010BD1AB1D30703D0521C07E00020AE
:1009600010BD10F8013B11F8014B1B1B07D110F80B
:10097000013B11F8014B1B1B01D1921EF1D118460E
:1009800010BD032A40F2308010F0030C00F01580F7
:1009900011F8013BBCF1020F624498BF11F801CB82
:1009A00000F8013B38BF11F8013BA2F1040298BFE7
:1009B00000F801CB38BF00F8013B11F0030300F051
:1009C0002580083AC0F0088051F8043B083A51F8F5
:1009D00004CBA0E80810F5E7121D5CBF51F8043BFA
:1009E00040F8043BAFF30080D20724BF11F8013B6D
:1009F00011F801CB48BF11F8012B24BF00F8013BCF
:100A000000F801CB48BF00F8012B704710B5203A21
:100A1000C0F00B80B1E81850A0E81850B1E81850A9
:100A2000A0E81850203ABFF4F5AF5FEA027C24BF7B
:100A3000B1E81850A0E8185044BF18C918C0BDE864
:100A400010405FEA827C24BF51F8043B40F8043B2D
:100A500008BF7047D20728BF31F8023B48BF11F8E2
:100A6000012B28BF20F8023B48BF00F8012B70473C
:100A70004FF000020429C0F0128010F0030C00F0C7
:100A80001B80CCF1040CBCF1020F18BF00F8012B45
:100A9000A8BF20F8022BA1EB0C0100F00DB85FEA13
:100AA000C17C24BF00F8012B00F8012B48BF00F8DF
:100AB000012B70474FF0000200B51346944696464E
:100AC000203922BFA0E80C50A0E80C50B1F1200161
:100AD000BFF4F7AF090728BFA0E80C5048BF0CC00F
:100AE0005DF804EB890028BF40F8042B08BF70476D
:100AF00048BF20F8022B11F0804F18BF00F8012BDF
:100B0000704700000000000030B44FF0013C50F886
:100B1000042B51F8043BCCFA52F4D51A20D1FCB97D
:100B200050F8042B51F8043BCCFA52F4D51A17D1E3
:100B3000B4B950F8042B51F8043BCCFA52F4D51A4E
:100B40000ED16CB950F8042B51F8043BCCFA52F496
:100B5000D51A05D1002CDAD030BC4FF00000704718
:100B600029BAB1FA81F111F01801D1F120008440C5
:100B7000F2D1CA40CB4012F0FF0213F0FF0330BCA9
:100B8000D01A7047704770477047704700487047E9
:100B9000D8090020704770477047704738B5044641
:100BA0000A4600206946AFF30080002808BF38BD20
:100BB00002460099204600F06DFA012038BD012060
:100BC00000F0ADBBF8B5AFF30080054600200C4641
:100BD000102000BF0646A819A0420DD9324669462A
:100BE0000020AFF30080070008BF00F098FB0098DA
:100BF000A04218BF0546C419FFF7C8FF05600746A5
:100C0000F01D20F007004619284600F00AF8B4420B
:100C100008BFF8BDA21B31463868BDE8F84000F0B7
:100C200039BA00210160C0E90110704710207047F7
:100C300010B500F02BFA006810BD10B5044600F0A6
:100C400025FA046010BD2DE9F0470D4699469246FD
:100C5000044600F124080168880604D5E06921F003
:100C60001001216000E00120A84201DD471B00E0E7
:100C70000027A1697A1902EB0900081AA0612078FF
:100C8000C00602D42046FFF765FD002608E0D4E93F
:100C900001211AF806009047206A401C761C206249
:100CA0004E45F4DB2078C0060AD52046FFF752FDFA
:100CB00006E0D4E9012130209047206A401C2062E0
:100CC000381EA7F10107F4DC07E0D4E9012118F888
:100CD00005009047206A401C2062281EA5F10105EE
:100CE000F3DC2046FFF74CFD2078000602D50220F9
:100CF000BDE8F0870120FBE72DE9F04F1C46834655
:100D00000E468BB0D2E90030149DC10F009120F047
:100D10000041080D01D0012200E00022801A0027C6
:100D2000DA1B61EB005191460A438846A0F2324A31
:100D30000AD00021084629F0E1FF10F4400F14D03A
:100D40000099A1B1400213E0012D02D00020302112
:100D500005E0E043CDE9060705E03154401CA04220
:100D6000FBDBCDE90674089529E0002005E00002D0
:100D7000002801DA022000E00120012D08950FD0A3
:100D80000021CDE904103046CDE902A4CDE9009858
:100D900009AA06A900F0F0F90790099810B105E03A
:100DA0000121EEE71021084629F0A8FF012D06D108
:100DB000DDE90610641C2144884200DA0897079890
:100DC00006AC375494E80E00CBE90012CBF808309B
:100DD0000BB0BDE8F08F2DE9F04F88460446D21DD8
:100DE00022F00701ADF5477DD1E90001CDE9BE0153
:100DF00024F0C2FC0246BF98C00F01D02D2007E0AE
:100E00002068810701D52B2002E0202101EAC000E3
:100E1000032AC09001D0072A05DB0346414620463D
:100E200000F06AF908E12078800601D5E06900E069
:100E3000062040F2F123B8F1650F814606D0B8F1E3
:100E4000660F16D0B8F1670F6BD12FE00020B9F50F
:100E50003C7F009001DC09F10103BEAA01A9C1A8F1
:100E6000FFF74AFFDDE9C170002609F1010583465D
:100E700044E001204B4600904FF00047BEAA01A974
:100E8000C1A8FFF739FFDDE9C2B0C1995D46002670
:100E900010B909F101000D18B9EB050003D4C0F138
:100EA000FF3609F10105A5EB090028E0B9F1010FB2
:100EB00001DA4FF00109002099450090484600DC16
:100EC0000346BEAA01A9C1A8FFF716FFDDE9C1705C
:100ED0004D4600268346207800070AD4AB4500DA49
:100EE0005D4601A8012D04DD411911F8011C3029CE
:100EF00007D04F4502DA17F1040F04DA01208246C9
:100F00000FE06D1EEEE7002F02DCED1B3E4403E018
:100F1000781CA84200DD7D1CB81B00F1010A4FF0CF
:100F200000472078000703D4AA4501DB4FF0FF3AC1
:100F30000021B7F1004F0DF217388DF8171324D0A8
:100F400002202B23002F01DA7F422D230A21021ECB
:100F5000A0F1010000DC5FB197FBF1FC97FBF1F21F
:100F600001FB1C7C17460CF1300C08F801CDEEE7B4
:100F7000A8F1010003702188090501D5452100E091
:100F80006521A0F1010800F8011CC098C4A9A1EBDB
:100F90000807FF1D00B10120411901EBEA70A169AA
:100FA0003844081A401EA0612078C00602D42046AA
:100FB000FFF7D0FBC09828B1D4E901219047206AFF
:100FC000401C20622078C00622D52046FFF7C2FBD5
:100FD0001EE0002E04DBB34502DD01A8805D00E0C9
:100FE0003020D4E901219047206A401C2062761C01
:100FF000AAF101005FEA000A0AD100F043F8C068D4
:101000000168405CD4E901219047206A401C2062BD
:10101000281EA5F10105DCDC07E0D4E9012118F860
:10102000010B9047206A401C2062381EA7F101077F
:10103000F3DC2046FFF7A4FB03200DF5477DC8E64F
:1010400001694A1C02610878704700B58FB0CDE98C
:1010500001310021059105497944CDE9031011467C
:101060006846FFF7DBFB0FB000BD0000E5FFFFFFA8
:101070000A6802F8010B0A607047000000487047D8
:10108000D009002000487047F00900200048704750
:10109000D0090020034640688C46002818BF8842CB
:1010A0003CBF03464068F8D318681844884207D00C
:1010B0000CF1030020F00700001D411A521A0146EE
:1010C000081D0A60FFF70ABB1FB584B000200A9C08
:1010D00006AB04AA02A90094AFF3008018B1DDE9C1
:1010E000020108B010BD0348204000F0E5FA0020DE
:1010F0000146F6E70000207C2DE9F0411F4604463A
:1011000003260168072A01F4006004DB08B116A574
:1011100005E016A503E008B115A500E015A521F02E
:1011200010002060A069C01EA0610FB1401EA06128
:101130002046FFF70FFB4FB1D4E901213846904715
:10114000206A401C2062C01C206206E0206AFAE788
:10115000D4E9012115F8010B9047761EF8D22046FC
:10116000FFF70EFBBDE8F0814E414E006E616E0050
:10117000494E4600696E66002DE9FF4F0446ADF505
:10118000437DD1AB93E82500D099DDF854830091DD
:10119000CDE90102C0AAC1A903A800F005FA0346DF
:1011A000C198D499064641B11D446D1C012D04DA45
:1011B000C5F10101012508440B44A6464FF0FF325A
:1011C0004FF0390B002124E0401EB04201D300272C
:1011D0000CE0DDF800C387083CF817704FEA807C0C
:1011E0004FEA1C7C27FA0CF707F00F076D1E092F3A
:1011F0000EDA002A02DB303204F8012B5A460029AD
:1012000003DD491E04F8012BF9E700213A4600E00E
:10121000491C08B1002DD7DC4FF0010CB8F1020FCA
:1012200008D0B8F1010F07D0A0B1401EB04205D3DD
:1012300000270CE0002522E0022520E0C09F850861
:1012400037F8155087073F0FFD4005F00F07052FB2
:1012500002DB04E04FF000074FF0000507E003DC7D
:10126000002901DCD50701D0012500E002250FB1DE
:101270004FF0000C022D02D0BCF1000F22D04FF035
:101280000009DDF800A313E0401EB04201D300279F
:101290000BE04FEA90083AF818704FEA80784FEA6E
:1012A000187827FA08F707F00F070FB1012004E0BC
:1012B0000028E9D1B9F1000001D04FF0000C022D57
:1012C00000D10546012D02F101000AD010B13032E3
:1012D00004F8012B5846002916DD491E04F8010BBD
:1012E000F9E718B1313204F8012B06E0312004F897
:1012F000010BD4985B1C00B9491E3020002903DD86
:10130000491E04F8010BF9E7C4980360C598C0F8BA
:1013100000C00DF5477DA4EB0E00BDE8F08F10B5C1
:1013200000F0D2F9BDE8104000F0C1B97546FFF7F2
:10133000A5FEAE4605006946534620F007008546E7
:1013400018B020B5FFF7A8F8BDE820404FF0000620
:101350004FF000074FF000084FF0000BAC46ACE830
:10136000C009ACE8C009ACE8C009ACE8C00921F08C
:1013700007018D4670470000810B43F26D425143D7
:10138000490B01EB107101EB507070472DE9FF5FC5
:10139000804600252F46DDF838A02CE0019900207A
:1013A000044631F817B021E0544503D2039931F8CF
:1013B000141000E000210BFB0100B0B13E19002128
:1013C00002E028F815106D1CB542FAD938F816104D
:1013D000014489460846FFF7CFFF6FF41C7100FBFC
:1013E00001F209EB021128F81610641C5445DBD3F6
:1013F0000028D9D17F1C02988742CFD3284604B059
:10140000BDE8F09F2DE9FF4F87B003AC0123002515
:10141000159EADF8182084E80B000A9B0121DBB172
:10142000B3FA83F0C0F11F0783EA53000DF10C0BF0
:1014300080EA900080EA101080EA102080EA1040D4
:1014400000F00100784021EA00045BF824000280EB
:1014500001A840F8241072E00180169808B100211C
:10146000016001200BB0BDE8F08F0DF1040858F8C1
:10147000242000925BF82410C4F101045BF82400DE
:101480000B46FFF783FF48F824000A996D000120FE
:10149000B84008420ED0059806AB009058F82420BA
:1014A0005BF82410C4F101045BF82400FFF76EFF21
:1014B00048F82400149890B358F82400B0423ED95C
:1014C000811B1498002827DD4FF0000948464A4642
:1014D0005BF82430DFF8C0E116E033F812C01CEBF3
:1014E000000010D041F6372C824600FB0CF040F291
:1014F000712C0EEBC000400F00FB0CF8BAEB081F7C
:1015000001D04FF00109521C8A42E6D333F811C0D2
:101510004844604423F811005B46002009E00EE0D7
:1015200053F8242000EB010C32F81CC022F810C044
:10153000401CB042F4D301A80D4440F824607F1E43
:1015400093D5169800B1056001A850F8240089E7EA
:101550002DE9F0438946844600210A460B461DE0EA
:101560004B4502D23CF8134021444FF00A080025B5
:101570002C46B1FBF8F6970708FB16163F0FB1FB98
:10158000F8F106FA07F72F43521CBDB206B1104618
:10159000641C042CEDD32CF813505B1C4B45DFD39B
:1015A0000029DDD1BDE8F0832DE9FF4F824689B0E7
:1015B0000526DDF860B035E0042E0DDA22464FF442
:1015C0000050ADF804000120009001AB03A906A86B
:1015D000FFF7DCFE074600E0002706EB860000EB85
:1015E000C602DDE9160100F097F800240DF1180895
:1015F0000DF10C09C0F30C0510E0BC4202D238F822
:10160000140005442846FFF7B7FE6FF41C714143F0
:1016100005EB0111054629F81410641CBC42ECD3FB
:10162000002DEAD1301EA6F10106C5DC0025BBF174
:10163000000128460AF5BD7609DD0B465146022217
:101640000090019002903046FFF7DCFE0FE00BDACD
:1016500051460522CBF100030090019002903046E4
:10166000FFF7D0FE5D4602E00120AAF87A0133467A
:10167000224603A900905046FFF788FE0B9A0146C8
:101680005046C2F800A0FFF763FF0A996D1E08607C
:1016900028440DB0E7E6000000F0FFFF10B5044657
:1016A000AFF300802046BDE81040FEF75CBE002886
:1016B00001D015F021BF704710B500F059F8BDE812
:1016C0001040FFF7F4BF000010B5012805D000213D
:1016D00003A000F034F8012010BD09A1F8E70000D4
:1016E00053494752544D454D3A204F7574206F660B
:1016F0002068656170206D656D6F72790000000073
:101700003A2048656170206D656D6F727920636F56
:101710007272757074656400B2F120030AD5C2F16B
:10172000200320FA02F001FA03F340EA030021FA51
:1017300002F1704721FA03F04FF00001704770B5D5
:1017400005460C460A2000E06D1C15F0D7FE35B1A9
:1017500028780028F8D102E0641C15F0CFFE14B1FF
:1017600020780028F8D1BDE870400A2015F0C6BEE8
:1017700010B5022803D0410103D50DA112E00020CD
:1017800010BD010101D50FA10CE0C10001D511A1CF
:1017900008E0810001D512A104E0400001D513A1A9
:1017A00000E0002115A0FFF7CAFF012010BD0000D6
:1017B000496E76616C6964204F7065726174696FFF
:1017C0006E000000446976696465204279205A659C
:1017D000726F00004F766572666C6F7700000000D4
:1017E000556E646572666C6F77000000496E6578AF
:1017F00061637420526573756C74000053494746E9
:1018000050453A2041726974686D6574696320655A
:101810007863657074696F6E3A200000B0B52DED85
:10182000068B48F2AC04C4F20304206810F4807FF5
:101830003DD1206810F4807F1DD100BF54F8040C06
:10184000216811F4807F11D154F8040C216811F43F
:10185000807F0BD154F8040C216811F4807F05D1EE
:1018600054F8040C216811F4807FE7D000EE100AD0
:10187000B8EE408A01E09FED128A41F678559FED5F
:10188000119A9FED11AAC2F2000501F021FE95ED1B
:10189000001A88EE093A9FED0D2A23EE0A3AB0EEBF
:1018A000414A13EE004A04EE021A85ED001AA4F133
:1018B000AC000321BDEC068BBDE8B04020F049BC74
:1018C0000000000000F07F45333353400AD7A33CAB
:1018D00040F690410020C2F200010A78012A18BFA8
:1018E00070470870487801281CBF0120704700200D
:1018F0004870012070470000B0B540F69045C2F234
:101900000005287878B919F07BF801280BD140F24E
:10191000940001240A21C2F200002C70017000F032
:1019200019F82046B0BD00242046B0BD40F6E03195
:101930000020C2F200014A78012A18BF704780B522
:101940004870FFF7C5FF13F09FFE0120BDE88040FF
:1019500070470000F0B581B02DED068B40F6E03504
:10196000C2F20005687828B100242046BDEC068B41
:1019700001B0F0BD19F052F80024012840F0E480D5
:101980000120687019F028F814F030F900200121C6
:1019900085ED060AAC7001F065FE00200221B0EE74
:1019A000408A01F05FFE00200321B0EE409A01F072
:1019B00059FE00200421B0EE40AA01F053FE43F28C
:1019C00030054DF2A54601200121C2F20005C5F205
:1019D000683685ED058A85ED069A85ED07AA85EDC1
:1019E000080AC5E90966C5E90B66C5E90D66C5E9DA
:1019F0000144C5E9034401F035FE01200221B0EEA7
:101A0000408A01F02FFE01200321B0EE409A01F040
:101A100029FE01200421B0EE40AA01F023FE02209D
:101A2000012185ED148A85ED159A85ED16AA85EDBF
:101A3000170AC5E91866C5E91A66C5E91C66C5E94D
:101A40001044C5E9124401F00DFE02200221B0EE5F
:101A5000408A01F007FE02200321B0EE409A01F017
:101A600001FE02200421B0EE40AA01F0FBFD00209F
:101A700085ED238A85ED249A85ED25AA85ED260A34
:101A8000C5E92766C5E92966C5E92B66C5E91F448E
:101A9000C5E9214401F0C6FD41F60C2543F2333679
:101AA000B7EE009A0020B0EE408AC2F20005C3F6FD
:101AB000337689EE00AA01F0EDFD00270120C4F283
:101AC0002017C5E90067C5E90444AC61AC6385ED46
:101AD000028A85ED03AA85ED0F0AC5E90844C5E928
:101AE0000A4401F09FFD0120B0EE408A89EE009A81
:101AF00001F0D0FD0220C5E91167C5E91544EC6588
:101B0000EC6785ED138A85ED149A85ED200AC5E909
:101B10001944C5E91B4401F0BDFD4DF20A700021D6
:101B200005F19002C5F8C040C5E92267C3F6A330AD
:101B3000C4F2483113C2C5E9274485ED310AC5E92D
:101B40002A44C5E92C4401242046BDEC068B01B093
:101B5000F0BD000040F6E030C2F2000090ED080A4F
:101B60007047000040F6E030C2F2000090ED070A36
:101B70007047000080B52DED068B20EEA0AAB0EED8
:101B8000608AB0EE409A00EE00AAB5EEC0AAF1EE6F
:101B900010FA19DBB0EE4A0A26F0EFF8B4EEC00AEC
:101BA000F1EE10FA03D7B0EE4A0A26F0E6F89FED00
:101BB0000E1AB4EEC10AF1EE10FAC2BF81EE000AAD
:101BC00020EE088A20EE099A40F6E030C2F20000CA
:101BD0004178012911BF002080ED079A80ED088A25
:101BE0000120BDEC068B80BDCDCC4C3F40F6E031F2
:101BF000C2F200014878012811BF0020012088703E
:101C000081ED090A7047000040F6E030C2F20000A2
:101C10004178012912BF002080ED050A012070479C
:101C200040F6E030C2F20000417801291CBF0020DC
:101C30007047817801291CBF012070470221817003
:101C4000012070472DE9F04F81B02DED108B92B03F
:101C5000002004F057FA417881B1817871B190F891
:101C6000221008290AD8012202FA01F111F4B47FE6
:101C700004D090F82300002800F09A80012004F09E
:101C800041FA417881B1817871B190F82210082928
:101C90000AD8012202FA01F111F4B47F04D090F8BD
:101CA0002300002800F08680022004F02BFA4178FF
:101CB00079B1817869B190F82210082909D80122F8
:101CC00002FA01F111F4B47F03D090F82300002848
:101CD00072D0032004F016FA417879B1817869B1A5
:101CE00090F82210082909D8012202FA01F111F412
:101CF000B47F03D090F8230000285FD0042004F0C4
:101D000001FA417879B1817869B190F822100829F7
:101D100009D8012202FA01F111F4B47F03D090F83E
:101D2000230000284CD0052004F0ECF9417871B173
:101D3000817861B190F82210082908D8012202FAAE
:101D400001F111F4B47F02D090F82300D0B3062043
:101D500004F0D8F9417871B1817861B190F822101E
:101D6000082908D8012202FA01F111F4B47F02D047
:101D700090F8230040B3072004F0C4F9417871B112
:101D8000817861B190F82210082908D8012202FA5E
:101D900001F111F4B47F02D090F82300F0B140F6C5
:101DA000E06000210022C2F2000002910262B2E370
:101DB000002014E0012012E0022010E003200EE0D9
:101DC00004200CE005200AE0062008E09EEFA7BCF6
:101DD000000000000000C8426F12833A0720C0B222
:101DE00004F090F941F2C001C768C2F20001D1E9E4
:101DF00002325740024652F8086F73403B4303D00B
:101E00000378002B01F0D98040F6607040F6E06264
:101E10000021C2F20002C2F2000092ED070AC0E9FE
:101E20000C11106A40F6E0640130C2F20004206236
:101E300019F0F2F81FED1B2A94ED073A1FED1C8AEA
:101E40001FED1C4A44F2841244F28C1743F62876A4
:101E5000C2F20002C2F20007C2F2000633EE022A0A
:101E6000B5EEC02AF1EE10FAB8BFB0EE482A22EE65
:101E7000042ABDEEC22A127812EE100A002A00F1DE
:101E8000010018BF962281B2531E8B42C8BF034681
:101E90003F889BB2FB1A38BF1344A26B02EB83024C
:101EA00043F62073C2F200031B78002B18BF962361
:101EB0005F1E8F42C8BF07463688BFB2F71B38BFC8
:101EC0001F44636B03EB870343F6BC47C2F2000772
:101ED0003F78002F18BF96277E1E8E4243F6C441DE
:101EE000C2F20001C8BF06460988B0B2081A38BF5E
:101EF0003844216B45F63024D3ED002A92ED003AA8
:101F0000C2F2000401EB8000042190ED002A40F6AB
:101F100060702170C2F2000094ED017A94ED055AD0
:101F2000D4ED023AD4ED034AD4ED045A90ED0C4AB4
:101F300034EE476A94ED094A66EE056AB0EE486AE7
:101F4000F4EEC46AF1EE10FA0EDC94ED0A4AB0EE3B
:101F5000486AB1EE444AF4EEC46AF1EE10FAA4BF46
:101F6000B0EE456AB0EE664AD4ED067A34EE63CA46
:101F700094ED0B9A24EEC65A23EEC6BA65EE866A35
:101F800024EE864A23EE86AA3BEE646A35EE655A55
:101F9000B0EE48BA27EE8CCAB4EEC9CAF1EE10FA18
:101FA0000EDC94ED0C9AB0EE48BAB1EE499AB4EE5C
:101FB000C9CAF1EE10FAA4BFB0EE67BAB0EE4C9AFF
:101FC00079EE4A7A94ED079A16EE0B4A94ED0DAA33
:101FD00055EE0B6AB0EE48BA37EEE46A74EE657AF5
:101FE00029EE065AB4EECA5AF1EE10FA0EDC94ED60
:101FF0000E6AB0EE48BAB1EE46AAB4EECA5AF1EE95
:1020000010FAA4BFB0EE45AAB0EE49BA34EE0A9A6F
:1020100094ED08AA47EE8B6A90ED0DBA94ED104A44
:1020200094ED115A94ED126A042079EE657A1FED51
:10203000969A4AEE276AD4ED147A3BEE44BA94EDB0
:1020400018AA03EE897A44EE893A45EE894A46EEAB
:10205000895AD4ED136A84F83C002BEE27BA84ED3C
:10206000017AC4ED023AC4ED034AF0EE484AC4EDE9
:10207000045AB4EECABAF1EE10FA0EDC94ED197AF5
:10208000F0EE484AB1EE47AAB4EECABAF1EE10FA41
:10209000A4BFF0EE674AB0EE4BAA94ED15BA3AEE43
:1020A00045DAD4ED1A7A66EE645A25EE64CA26EE55
:1020B000A47A66EE243A25EE24AA75EEE64A7CEE72
:1020C000465AB0EE48CA2BEE0DDAB4EEE7DAF1EE7E
:1020D00010FA0EDCD4ED1B7AB0EE48CAF1EE677A46
:1020E000B4EEE7DAF1EE10FAA4BFB0EE4BCAF0EEB0
:1020F0004D7A37EECABAD4ED167A55EE8C3A94ED95
:102100001CAA14EE8C7A7BEE465A73EEE64AB0EEC9
:1021100048BA67EEA55AF4EECA5AF1EE10FA0EDC90
:1021200094ED1DAAB0EE48BAB1EE4AAAF4EECA5A2E
:10213000F1EE10FAA4BFB0EE65AAB0EE67BA73EE86
:102140008A3AD4ED175A04EE8B7A05EE094A06EE68
:10215000095A06EE896A84ED104A73EEE63A84ED78
:10216000115A84ED126A05EEA37A47EE096AC4EDAE
:10217000136A13F05DFE43F608450420C2F2000521
:1021800095ED014A95ED051A95ED025A95ED036A14
:1021900095ED047A30EE442A95ED090A287022EE76
:1021A000013AB0EE482AB4EEC03AF1EE10FA0EDC75
:1021B00095ED0A0AB0EE482AB1EE400AB4EEC03AF4
:1021C000F1EE10FAA4BFB0EE412AB0EE430AD5ED0D
:1021D000061A70EE455AD5ED0B2A26EE423A65EE08
:1021E000424A27EE020A26EE021A65EE023A33EE62
:1021F000472A34EEC63AF0EE484A61EEA55AF4EEAC
:10220000E25AF1EE10FA0EDCD5ED0C2AF0EE484A57
:10221000F1EE622AF4EEE25AF1EE10FAA4BFF0EE0B
:10222000614AF0EE652A72EEE31AD5ED072A13EE45
:10223000241AD5ED0D3A12EE240AF0EE484A31EE9A
:10224000C63A71EE471A22EE832AB4EEE32AF1EE83
:1022500010FA0EDC95ED0E3AF0EE484AF1EE433AF4
:10226000B4EEE32AF1EE10FAA4BFF0EE423AF0EE3B
:10227000624A71EE232AD5ED083A95ED101A01EE67
:10228000A40A05EE094A06EE095A07EE096A95ED19
:10229000112A95ED123A042072EEC71AD5ED142AD0
:1022A00003EEA10AD5ED131A70EEC10A00EE097A09
:1022B00095ED180A60EEA20A85F83C0085ED014A0A
:1022C00085ED025AB0EE485A85ED036A85ED047A31
:1022D000F4EEC00AF1EE10FA0EDC95ED190AB0EE3C
:1022E000485AB1EE400AF4EEC00AF1EE10FAA4BF6B
:1022F000B0EE625AB0EE600A95ED157A70EE424A81
:10230000D5ED1A0A23EE456A62EE453A21EE850ABA
:1023100023EE054A62EE052A36EE615A33EEC36AB1
:10232000F0EE483A67EE244AF4EEE04AF1EE10FA95
:102330000EDCD5ED1B0AF0EE483AF1EE600AF4EE41
:10234000E04AF1EE10FAA4BFF0EE473AF0EE640A6C
:1023500070EEE22AD5ED160A16EE234A95ED1C7AA8
:1023600015EE230A32EEC36A34EE615A20EE866A15
:10237000B4EEC76AF1EE10FA0CDC95ED1D7AB1EE01
:10238000477AB4EEC76AF1EE10FAA4BFB0EE467A0F
:10239000B0EE608A34EE074A95ED176A05EE080A3A
:1023A00002EE091A03EE092A01EE893AD4ED010A78
:1023B00034EE614A85ED101A85ED112A85ED123A49
:1023C00006EE040A40EE091A94ED100AC5ED131A40
:1023D00024F0F2F8B0EE408AD5ED010A95ED100A2E
:1023E00024F0EAF89FEDC01A78EE40DAF4EEC1DA94
:1023F000F1EE10FA02DD9FEDBD0A08E09FEDBC0A88
:10240000F4EEC0DAF1EE10FA03DA9FEDBA0A7DEECF
:1024100080DA94ED010A94ED101A9FEDB78A20EE50
:1024200000AAB0EE489A01EE01AAB5EEC0AAF1EEFC
:1024300010FA10DBB0EE4A0A25F09FFCB4EEC00A99
:10244000B0EE409AF1EE10FA05D7B0EE4A0A25F048
:1024500094FCB0EE409A95ED010A95ED101AF0EE5D
:1024600048EA20EE00BA01EE01BAB5EEC0BAF1EECC
:1024700010FA10DBB0EE4B0A25F07FFCB4EEC00A78
:10248000F0EE40EAF1EE10FA05D7B0EE4B0A25F077
:1024900074FCF0EE40EA94ED020A94ED111AB0EEED
:1024A00048BA20EE00CA01EE01CAB5EEC0CAF1EE8C
:1024B00010FA10DBB0EE4C0A25F05FFCB4EEC00A57
:1024C000B0EE40BAF1EE10FA05D7B0EE4C0A25F0A6
:1024D00054FCB0EE40BA95ED020A95ED111A20EECB
:1024E00000CA01EE01CAB5EEC0CAF1EE10FA10DB67
:1024F000B0EE4C0A25F041FCB4EEC00AB0EE408AC2
:10250000F1EE10FA05D7B0EE4C0A25F036FCB0EE2D
:10251000408A0120029040F6607041F2102A41F694
:1025200054189FED75EA4FF00009FF26B5EE00FA4A
:10253000F7EE00FAB0EE00CA00254FF0000BC2F231
:102540000000C2F2000AC2F200088DF84690ADF811
:1025500044906030039000BF5FFA8BF003F0C4FD3D
:1025600004460078002800F0ED80574657F8180F11
:10257000796814F083FC18B1D7E9000119E000BFB5
:1025800008EB0500F0EE4C0AC0E90799C0E909998B
:10259000C0E90B99C0E90D9994ED040A8FEE800A09
:1025A00002F09EFF0EA818F08DFCDDE90E01C7E9D0
:1025B0000001D4E9022359405040084305D011A836
:1025C0000121C7E9002300F80B1094ED0A1A94EDDD
:1025D000090A94ED0B2A21EE01DA00EE00DAB0EEE2
:1025E0004E0A02EE02DAB5EEC0DAF1EE10FA08DBBE
:1025F000B0EE4D0A25F0C1FBB4EEC00AF1EE10FAC0
:102600007CD618F80500002800F0828008EB050051
:1026100090ED072A90ED083A90ED014A90ED025AAC
:10262000D0ED090A90ED036AD0ED0A1A90ED047A14
:1026300032EE021A30EE011A33EE011A90ED0B3A27
:1026400024EE014A90ED0C1A00EEC54A01EEC64A8E
:1026500090ED0D6A33EE035AD0ED061A34EE055AAA
:1026600031EE051A90ED055A27EE011A90ED0E7A1B
:1026700080ED070A80ED082A80ED094AC0ED0A0ABC
:1026800080ED0B4A80ED0C3A06EE451A07EE611A12
:1026900080ED0D1A80ED0E6AB4EECF1AF1EE10FA4D
:1026A00050DDB4EEEF1AF1EE10FA4BDADAE9000180
:1026B00014F0E4FB30B90CA818F004FCDDE90C01BF
:1026C000CAE9000170B2B0F1FF3F3EDCDAE9000177
:1026D00018F022FEB4EEEF0AF1EE10FA35DD0398A1
:1026E00014F0D0FB5E4630E0DB0F4940DB0FC9C081
:1026F000DB0F49C0DB0FC94000000000B0EE4D0AFF
:1027000025F03BFB18F8050000287FF47FAF00BFE1
:1027100008EB0500B0EE401A80ED070A80ED080ACC
:1027200080ED090A80ED0A0A80ED0B0A80ED0C0AA3
:1027300080ED0D0A80ED0E0AB4EECF1AF1EE10FA1C
:10274000AFDC00BF504614F09DFB3C350AF1080A8F
:102750000BF1010BB42D7FF4FFAE70B20028C0F274
:10276000C1805FFA86FA4FFA86F9504603F0BCFC46
:10277000804611A810F80900002800F0618644F294
:10278000CC7044F2D4734FF6FF72039640F6E06BC0
:1027900044F630244FF6FF71C2F20000C2F200038B
:1027A000C2F2000BC2F200040078002818BF012218
:1027B0001B880028A3EB0207384618BF96309A42C0
:1027C00098BF3846DBE91537DBE91725247803EB9A
:1027D000800C44F63823002C4FF6FF74C2F200033D
:1027E0001B8818BF0124A3EB0400064618BF9636C9
:1027F0009C4298BF064644F6007007EB860344F6F9
:10280000F867C2F20000C2F2000700883F78002F8C
:102810004FF6FF7718BF0127A0EB0704264618BF25
:102820009636874244F69447C2F2000798BF264680
:102830003F7805EB860044F69C46C2F20006002F66
:1028400018BF01213688002F41F21027C2F200077D
:10285000A6EB0104254618BF9635B14209EB4901A4
:1028600098BF2546CDF8049007EB810998ED093A09
:1028700098ED0A4A98ED0B5AD8ED04CA90ED00CABB
:10288000D3ED009ADCED00AABAF1020F99ED0C0A23
:1028900099ED0D1A99ED0E2A02EB850191ED00DA02
:1028A00035EE42EA34EE41FA73EE408A28D1B0EEBA
:1028B0006A0AF0EE690AB0EE4D1AF0EE4C1AB0EE6C
:1028C000682AF0EE4F2AB0EE4E3A13F0B1FAF0EE6D
:1028D000409A1FED770AB0EE60DAB0EE41CA18F008
:1028E0009BFB75E040F66074C2F20004D4E9180165
:1028F00014F0C4FA002800F03683D4E9180139E353
:1029000000F02AFEB0EE603AB0EE615AB0EE414AF5
:10291000B0EE402AB0EE6A0AF0EE690AB0EE4D1A47
:10292000F0EE4C1AF0EE432AB0EE443AF0EE453A9F
:1029300013F0F0F8B0EE682AF0EE4F2AB0EE4E3AFF
:1029400013F076FA8DED000A1FED950AB0EE48DA25
:10295000F0EE609AB0EE418A18F05EFBB0EE49AA44
:10296000B0EE4B9AB0EE6CBAB0EE6DCAF0EE40AA83
:10297000F0EE60BAF0EE41CAF0EE61DA00F0ECFD84
:10298000B0EE603AB0EE615AB0EE414AB0EE402A85
:10299000B0EE6C1AF0EE6D1AF0EE4CDAB0EE48CAFA
:1029A000B0EE4D8AB0EE69DAB0EE6A0AF0EE6B0A6C
:1029B000DDED009AF0EE4BCAB0EE49BAB0EE4A9A9D
:1029C000F0EE432AB0EE443AF0EE453A13F0A2F8A6
:1029D000B0EE682AF0EE4F2AB0EE4E3A13F028FA25
:1029E00041F634401FEDBC1A40F6607498ED040ABD
:1029F0000421C2F20000C2F2000490ED012A90ED21
:102A0000054A90ED095A90ED023A90ED036A90ED77
:102A1000047AF0EE411A017079EEC20A60EE840A7F
:102A2000F4EEC50AF1EE10FA0EDC90ED0A5AF0EE63
:102A3000411AB1EE455AF4EEC50AF1EE10FAA4BF00
:102A4000F0EE441AB0EE605AD0ED062AD0ED0B3A03
:102A500063EE616A75EE437A66EE615A67EE210AAB
:102A600026EE214A63EE214A76EEC61A35EEC75AA3
:102A7000F0EE415A62EEA76AF4EEE36AF1EE10FA64
:102A80000EDCD0ED0C3AF0EE415AF1EE633AF4EE82
:102A9000E36AF1EE10FAA4BFF0EE625AF0EE663A85
:102AA00073EEE44AD0ED072AD0ED0D3A55EE250A33
:102AB00011EEA54A74EEC64A74EE471A22EEA45AE5
:102AC000F0EE414AB4EEE35AF1EE10FA0EDCD0ED2E
:102AD0000E3AF0EE414AF1EE633AB4EEE35AF1EE0B
:102AE00010FAA4BFF0EE453AF0EE624A74EE233AD3
:102AF000D0ED085A41EEA40AD0ED102A00EE032AC8
:102B000000EE063A90ED114A90ED125A042100EEC3
:102B1000076A73EEC71A7DEE624AD0ED183A45EEA9
:102B2000A10AD0ED141A00EE207AD0ED130A80F835
:102B30003C1080ED012A80ED023A80ED036AB0EE90
:102B4000416A64EEA14A80ED047AF4EEE34AF1EEC4
:102B500010FA0EDC90ED193AB0EE416AF1EE433A0C
:102B6000F4EEE34AF1EE10FAA4BFB0EE616AF0EEC3
:102B7000643AD0ED154A73EEC47AD0ED1A5A25EEB8
:102B8000467A64EE466A60EE861A25EE063A64EEF0
:102B9000063A37EE606A36EEC57AF0EE416A64EEC8
:102BA000A77AF4EEE57AF1EE10FA0EDCD0ED1B5ABE
:102BB000F0EE416AF1EE655AF4EEE57AF1EE10FAC4
:102BC000A4BFF0EE646AF0EE675A75EEE33AD0ED1A
:102BD000164A17EE263AD0ED1C5A56EE261AF0EE9B
:102BE000416A33EEC57A73EE603A24EE876AB4EE3A
:102BF000E56AF1EE10FA0EDC90ED1D7AF0EE416A16
:102C0000F1EE475AB4EEE56AF1EE10FAA4BFF0EE29
:102C1000465AF0EE646A73EE254AD0ED175A43EE39
:102C2000A61A90ED1F3A40EE042A00EE054A00EE87
:102C3000205A90ED206A90ED217A042174EEE03A5A
:102C4000D0ED234A45EEA31AD0ED223A7CEE435A4A
:102C500040EE210AD0ED271A65EEA45A80F87810CC
:102C6000C0ED102A80ED114A80ED125AC0ED130A12
:102C7000F0EE410AF4EEE15AF1EE10FA0EDC90EDBE
:102C8000284AF0EE410AF1EE441AF4EEE15AF1EE70
:102C900010FAA4BFF0EE640AF0EE651AD0ED245AE3
:102CA00031EEC6CAD0ED296A67EE604A66EE607AF8
:102CB00023EEA04A27EE205A66EE201A74EEE30AAD
:102CC00077EEC74AF0EE417A25EE8CCAB4EEE6CA3A
:102CD000F1EE10FA0EDCD0ED2A6AF0EE417AF1EE58
:102CE000666AB4EEE6CAF1EE10FAA4BFF0EE657AB9
:102CF000F0EE4C6A76EEE16AD0ED255A14EEA75A52
:102D0000D0ED2B1A10EEA74A76EEC74A75EE630A8D
:102D100065EEA44AF4EEE14AF1EE10FA0CDCD0EDD7
:102D20002C1AF1EE611AF4EEE14AF1EE10FAA4BFAA
:102D3000F0EE641AB0EE651A35EE215AD0ED261A7F
:102D400040F2A00600EE814A0BF1480100EE063A7F
:102D500000EE076A00EE237ADFEDF1AA35EE631A82
:102D6000C2F2000601EE814A40EE043A96ED040AF2
:102D7000D1EC030A80ED1F3A80ED206A80ED217AC4
:102D8000C0ED223A13F054F8B0EE40DAB0EE60EA4B
:102D900023F012FCB0EE40CAB2EE040A0020B4EEFA
:102DA000C09AF1EE10FAF4EEC0EAC8BF0120DBEDE4
:102DB00006BAF1EE10FA5DDD029908405AD09FED97
:102DC000D93A9FEDD90A3BEECC1A3DEE812AB0EEFE
:102DD0006F1AB4EEC38A8EEE804A83EE085A83EEF1
:102DE0000B6A89EE000AF1EE10FAB4EEC3BAB0EE47
:102DF0006F3AC8BFB0EE451AF1EE10FAB4EEEF4AE2
:102E0000C8BFB0EE463AF1EE10FAB4EEEF0AC8BF12
:102E1000B0EE6F4AF1EE10FAC8BFB0EE6F0AB4EE32
:102E2000C40AF1EE10FAB4EEEA2AD4BF80EE044AE6
:102E300084EE004AF1EE10FA24EE045A24EE054A1C
:102E4000B0EE6A5A08DC9FEDB95AB4EEC52AF1EE2D
:102E500010FAA8BFB0EE425A23EE000A21EE000A93
:102E600098ED041A20EE040A20EE050A40EE41BA5D
:102E7000CBED06BA9FEDAE0ABAF1020F02D118F0FF
:102E8000CBF823E018F0C8F8B0EE408AB0EE609AB4
:102E9000B0EE41AAB0EE61BA00F05EFBB0EE603A6F
:102EA000B0EE615AB0EE414AB0EE402AB0EE480AA8
:102EB000F0EE490AB0EE4A1AF0EE4B1AF0EE432A51
:102EC000B0EE443AF0EE453A12F024FE9FED983A07
:102ED000B0EE4D2AF0EE4E2A12F036FF20EEA0DAC8
:102EE000B0EE40AAB0EE609AB0EE418A00EE00DA91
:102EF00001EE01DAB5EEC0DAF1EE10FAC0F2DB80D5
:102F0000B0EE4D0A24F039FFB4EEC00AB0EE40BA7C
:102F1000F1EE10FA80F1C1809FED860AB4EEC0BADE
:102F2000F1EE10FA40F3C7809BED060A9FED821A7E
:102F300009A808A920EE010AFDF70AFB8FEE8B0A0B
:102F40009DED08BA9DED09DABAF1020F28EE008A6C
:102F500029EE009A2AEE00AA9FED750A40F0F4804F
:102F600018F05AF814E10AA817F0ACFFDDE90A01DD
:102F7000C4E9180118F0D0F9B1EE081AB4EEC10A8C
:102F8000F1EE10FA40F35C820020002603F0ACF86A
:102F9000007800287FF4E5AB0120012603F0A4F8B7
:102FA000007800287FF4DDAB0220022603F09CF8B5
:102FB000007800287FF4D5AB42E240F6E0639FED55
:102FC0005F0A9FED5F2AC2F2000393ED081AB8EE84
:102FD000C11A21EE003AB4EEC23AF1EE10FA08DC62
:102FE000B4EEC03AB0EE432AF1EE10FAB8BFB0EE3C
:102FF000402A90ED063AB7EE084AB6EE005A93ED35
:10300000070A23EE046A9FED464AB7EE003A02EE45
:10301000056A83EE023A36EE405AB4EEC45AF1EE37
:1030200010FA08DC9FED414AB4EEC45AF1EE10FAF2
:10303000A8BFB0EE454A9FED435A40F66077C2F212
:10304000000722EE052A02EE040A91ED152A91ED01
:10305000164A83ED070A90ED135A90ED146A35EE87
:10306000422A36EE444A23EE022A23EE043A22EEA6
:10307000012A23EE011A87ED0C2A87ED0D1AD0E9FB
:103080001376456D00201862C1E91576CD65D2E949
:103090000023C1E90223FEF7C5BEB0EE4D0A24F0BD
:1030A0006CFEB0EE40BA9FEDEA0AB4EEC0BAF1EEA3
:1030B00010FA3FF739AF94ED0E8A94ED0F9A94ED24
:1030C00010AABBF806003CEE6BBAC72800F291804C
:1030D0000130ABF8060080B2C82840F0B1819FED06
:1030E000DB2A0BF14800B0EE4B3AD0EC030A96ED28
:1030F000040AF0EE422A12F00FFF0BF1480086EDB1
:10310000040A0121C0EC030A41F60820C2F20000C3
:10311000017012B0BDEC108B01B0BDE8F08F00BFA4
:10312000CDCC4C3E000016430000FA43CDCC4CBE43
:10313000000000000AD7233CE12E65426F12833A5B
:103140006666663FCDCCCC3D17F066FFB0EE40EA38
:10315000B0EE60FAF0EE418AF0EE619A00F0FCF910
:10316000B0EE603AB0EE615AB0EE414AB0EE402A9D
:10317000B0EE4E0AF0EE4F0AB0EE681AF0EE691AA1
:10318000F0EE432AB0EE443AF0EE453A12F0C2FCBB
:103190009FEDAE3AB0EE4D2AF0EE4B2A12F0D4FD80
:1031A00004F13800B0EE402AB0EE416AB0EE605A49
:1031B000B0EE4A0AF0EE490AB0EE481A90EC033A33
:1031C000F0EE421AB0EE452AF0EE462A17F0C0FFA4
:1031D00004F13800B0EE408AB0EE609AB0EE41AA39
:1031E00080EC030ABBF806003CEE6BBAC7287FF6FA
:1031F0006FAF2CEEAADA2DEE2ACA2DEE0B0AB4EE32
:10320000CC0AB0EE4C3AF1EE10FA08DCB1EE4C3AD2
:10321000B4EEC30AF1EE10FAA8BFB0EE403A9FED4B
:103220008B2A0BF1480008F12405D0EC030A96ED37
:10323000040AF0EE422A12F06FFE86ED040A0BF14A
:103240004800B0EE4B0AC0EC030A22F0C0FA9FED32
:1032500081BAB4EECB0AF1EE10FA4CDA2DEE080A80
:103260006DEE090A2DEE0A1AF0EE4C1A1EF022FF3E
:103270002DEE000AB0EE608AB0EE419A10EE100A10
:1032800027F0AEFB94ED1A0B02460B4694ED1CABF7
:1032900094ED1ECB2DEE088A2DEE099A51EC100B01
:1032A00027F09CF8824618EE100AA3460E4627F037
:1032B00097FB02460B4651EC1A0B27F08FF8074696
:1032C00019EE100A0C4627F08BFB46EC18AB40F2C7
:1032D000A00602460B4651EC1C0B44EC197BC2F2D3
:1032E000000627F07BF841EC100B8BED1A8B8BED71
:1032F0001C9B8BED1E0B41F2C004C2F20004D4E90A
:10330000040113F0BBFD002800F08C80D4E9040117
:1033100018F002F8B3EE041AB4EEC10AF1EE10FA96
:1033200000F380803078019988427BD10398314640
:1033300009F1340709F1300694ED191A09F1380A38
:1033400094ED180A94ED1A2A97ED003A96ED006A6A
:10335000DAED003A087098ED0A5A98ED094AD8ED6E
:103360000B2A71EE430A30EE467A75EE431A34EEBC
:10337000466A32EEE34A32EE635ADFED372A31EE27
:10338000E01A36EE470A34EE452A21EE013A00EE05
:10339000003A02EE023AB4EEE23AF1EE10FA4FDDF4
:1033A00060EEA00A61EEA11A47EE070A46EE061A81
:1033B00045EE050A44EE041AB6EE004A31EEE05A34
:1033C000DFED261A25EE044A84EE033A61EE030A85
:1033D00020EE030A22EE031A1EF06CFE96ED002A80
:1033E0009AED003A97ED004A04F1600300EE0B2AD3
:1033F00000EE8B4A01EE0B3A86ED002A87ED004A7B
:103400008AED003A95E8070007C304A817F05AFDB3
:10341000DDE90401C4E9040112B0BDEC108B01B078
:10342000BDE8F08F039804F16003307095E8070061
:1034300007C306A817F046FDDDE90601C4E904014B
:1034400012B0BDEC108B01B0BDE8F08F00000000A1
:103450000AD7233CCDCC4C3DEC51B83D0AD7A33C18
:10346000022806D99FED091AF0EE410AB0EE410A92
:10347000704743F2B41100EB8000C2F2000101EB8F
:10348000C000283090EC030A704700BF0000000025
:10349000022806D99FED091AF0EE410AB0EE410A62
:1034A000704743F2B41100EB8000C2F2000101EB5F
:1034B000C000343090EC030A704700BF00000000E9
:1034C00043F2B410C2F2000090EDCE0A7047000043
:1034D00043F2B410C2F2000090EDCF0A7047000032
:1034E00043F2B41100EB8000C2F2000101EB0010C6
:1034F00000F5CC707047000043F2B41100EB80007F
:10350000C2F2000101EB001000F5C8707047000026
:1035100043F2B41100EB8000C2F2000101EB001095
:1035200000F5DC7070470000022806D99FED091AEB
:10353000F0EE410AB0EE410A704743F2B41100EBDD
:103540008000C2F2000101EBC000A03090EC030A41
:10355000704700BF0000000043F2B410C2F2000048
:1035600000F5347090EC040A70470000022806D978
:103570009FED091AF0EE410AB0EE410A704743F29E
:10358000B41100EB8000C2F2000101EBC00000F5B5
:103590008C7090EC030A704700000000022806D9E6
:1035A0009FED091AF0EE410AB0EE410A704743F26E
:1035B000B41100EB8000C2F2000101EBC00000F585
:1035C000927090EC030A70470000000043F2B410C0
:1035D0009FED060AC2F2000090F82E0301EE100AD9
:1035E000B8EE411A21EE000A704700BF0AD7233C0B
:1035F00043F2B4109FED060AC2F2000090F82D03CA
:1036000001EE100AB8EE411A21EE000A704700BF21
:103610000AD7233C43F2B410C2F2000090F82C0306
:103620007047000043F2B410C2F2000090EDCC0AE3
:10363000704700009FED0A0A022810D84A1ED2B235
:10364000032A88BF704700EB800001EB400043F283
:10365000B411C2F2000101EB800090EDD20A704774
:10366000000000009FED0A0A022810D84A1ED2B2BC
:10367000032A88BF704700EB800001EB400043F253
:10368000B411C2F2000101EB800090EDD60A704740
:1036900000000000022884BF9FED060A704743F235
:1036A000B41100EB8000C2F2000101EBC00090ED0C
:1036B000D20A70470000000043F2B410C2F20000CA
:1036C00090F820037047000002288FBF002043F2CB
:1036D000B411C2F2000101EB800098BFD0F8F407EA
:1036E00070470000022888BF704743F2B41100EB16
:1036F0008000C2F2000101EBC000283080EC030A18
:1037000070470000022888BF704743F2B41100EBF5
:103710008000C2F2000101EBC000343080EC030AEB
:103720007047000043F2B410C2F2000080EDCE0AF0
:103730007047000043F2B410C2F2000080EDCF0ADF
:1037400070470000B0B543F2B41200EB800001F105
:103750000805D1E900CEC2F2000202EB00103CCD18
:1037600000F5D0773CC7C0E966CED1E90621C0E9B3
:103770006C21B0BD43F2B41200EB8000C2F2000233
:1037800002EB00100A684968C0E964217047000034
:10379000B0B543F2B41200EB800001F10805D1E9A5
:1037A00000CEC2F2000202EB00103CCD00F5E07743
:1037B0003CC7C0E96ECED1E90621C0E97421B0BD95
:1037C000022888BF704743F2B41100EB8000C2F2B8
:1037D000000101EBC000A03080EC030A704700003C
:1037E000022888BF704743F2B41100EB8000C2F298
:1037F000000101EBC000AC3080EC030A7047000010
:1038000043F2B410C2F2000000F5347080EC040AF8
:1038100070470000022888BF704743F2B41100EBE4
:103820008000C2F2000101EBC00000F58C7080EC5A
:10383000030A7047022888BF704743F2B41100EBB7
:103840008000C2F2000101EBC00000F5927080EC34
:10385000030A70479FED071A43F2B411C2F2000148
:1038600020EE010ABDEEC00A10EE100A81F82E0308
:10387000704700BF0000C8429FED071A43F2B41121
:10388000C2F2000120EE010ABDEEC00A10EE100ADD
:1038900081F82D03704700BF0000C84243F2B41105
:1038A000C2F2000181F82C037047000043F2B4100B
:1038B000C2F2000080EDCC0A70470000022810D848
:1038C0004A1ED2B2032A88BF704700EB800001EB8A
:1038D000400043F2B411C2F2000101EB800080ED20
:1038E000D20A7047022810D84A1ED2B2032A88BFD3
:1038F000704700EB800001EB400043F2B411C2F2CC
:10390000000101EB800080EDD60A7047022888BFD5
:10391000704743F2B41100EB8000C2F2000101EBEA
:10392000C00080EDD20A704743F2B411C2F2000128
:1039300081F8200370470000022884BF00207047F0
:1039400080B500EB800028210C2201EBC00143F27E
:10395000B410C2F20000084480EC030A1EF04CFDD3
:10396000B0FA80F0400980BD022884BF0020704773
:1039700080B500EB800034210C2201EBC00143F242
:10398000B410C2F20000084480EC030A1EF034FDBB
:10399000B0FA80F0400980BD70B500EB80004FF4B4
:1039A000CC7243F2B4164B6901F1080C02EB001221
:1039B000D1E9000E9CE83010C2F20006B050B018F9
:1039C0004361C0E9035CC0E901E4D1E90631C0E923
:1039D0000631114620221EF00FFDB0FA80F040099A
:1039E00070BD000080B500EB80004FF4C87243F258
:1039F000B41302EB001208684968C2F20003985041
:103A000098184160114608221EF0F6FCB0FA80F0CA
:103A1000400980BD70B500EB80004FF4DC7243F2CA
:103A2000B4164B6901F1080C02EB0012D1E9000E4B
:103A30009CE83010C2F20006B050B0184361C0E9F3
:103A4000035CC0E901E4D1E90631C0E90631114661
:103A500020221EF0D1FCB0FA80F0400970BD0000B9
:103A6000022884BF0020704780B500EB8000A021B1
:103A70000C2201EBC00143F2B410C2F20000084472
:103A800080EC030A1EF0B8FCB0FA80F0400980BD5B
:103A900080B543F2B4101022C2F2000000F5347178
:103AA00000F5347081EC040A4FF434711EF0A4FC6C
:103AB000B0FA80F0400980BD022884BF0020704722
:103AC00080B500EB80004FF48C710C2201EBC0013B
:103AD00043F2B410C2F20000084480EC030A1EF066
:103AE0008BFCB0FA80F0400980BD0000022884BF42
:103AF0000020704780B500EB80004FF492710C22DB
:103B000001EBC00143F2B410C2F20000084480ECA3
:103B1000030A1EF071FCB0FA80F0400980BD00007D
:103B200080B5D0E9001243F2B4138068C2F20003FA
:103B3000C3F8F417C3F8F827C3F8FC0703F2F470CE
:103B400040F2F4710C221EF057FCB0FA80F04009EC
:103B500080BD00002DE9F043CBB0D1F80C90804639
:103B60000D465FFA89F420460BF08EFC064630B114
:103B70000BF084FC58B10EF073FE044608E02046BA
:103B80000EF074FE06460BF079FC0028F3D10024F9
:103B9000404617F021F907460068F0B10021B5F85A
:103BA00007000A220A238DF813104D21ADF81110D9
:103BB0000A218DF816408DF81790069602ACADF8E4
:103BC0001410ADF81C008F204146009020461BF0D9
:103BD00073FA386821461CF09DFA4BB0BDE8F083BB
:103BE00080B584B0C8680190086902904869039064
:103BF00001A8FFF795FF04B080BD000010B50C468A
:103C000017F0C4F9012811D12069B2EE041A00EEB0
:103C1000100AB4EEC10AF1EE10FA1CDBB3EE031A7F
:103C2000B4EEC10AF1EE10FA0FDD14E00A38C0B2AA
:103C3000092810D82069B7EE000A01EE100AB4EE88
:103C4000401AF1EE10FA18BF10BDBDEEC00A10EE1A
:103C5000100A13F055FC10BD7047000070B5CAB0D3
:103C6000054617F0B9F804460068D0B1002001AE4F
:103C70002946162216238DF80F004FF49670ADF8E2
:103C80000D00C820ADF81400C820C0F264000490F4
:103C9000D920009030461BF00FFA206831461CF006
:103CA00039FA4AB070BD00002DE9F04FADF51D7D29
:103CB00026AD40F6A0360DF18E0C002705F1090067
:103CC000C2F200061F908BA8013005904DF60860E7
:103CD000C0F2020000881E9007EB470406EB840048
:103CE0008268002A00F05B8460460A219047C0B2D7
:103CF00000281A9000F0588445F240504FF4927119
:103D00001A9E00234FF0000E0DF18E0C1797C2F291
:103D1000000007FB010A00210AF21710209107900A
:103D20000AF21D1009900AF58B700B900AF102003F
:103D300012900AF58A70169045F6D010C2F2000073
:103D400000EBC40B0AF21510002419900AF10C00C4
:103D50000BF103090E900AF109001D900AF1080009
:103D600010900AF107000D900AF1060014900AF174
:103D7000050011900AF104001C900AF10300229042
:103D80000BF10A000A900BF1140008900BF11000DF
:103D900013900BF108000F900BF105000C900BF144
:103DA0000D0015900BF10C001B900BF10400189006
:103DB0000BF1020021900020CAE000278BF8007070
:103DC0009FE3032736E0012734E00698002800F03F
:103DD00001830798818802680B980078029101920C
:103DE0000490069801880646002959D00D980022B3
:103DF00090F800C0002000BF00EBC005354495F8E6
:103E000003E0F44508D1109F2B793F789F4203D1FE
:103E1000AB78049F9F426BD0013001328842EBD3D4
:103E200092B28A4268D10F29B64600F2D3823AE0B4
:103E300003271A9E8BF80070012051464FF49272AE
:103E400089F800002846FCF79CFD0F9A012F4FF0DF
:103E5000000E0DF18E0C4FF000030ED114980C994A
:103E60000127007808701088002800F1010004BFC5
:103E70000A99A1F800E0108043E32298022F00780D
:103E80008DF89B00219880F800E040F0418319985C
:103E900016990078097841EA0020ADF898003BE3D4
:103EA00000210020B64648F68053019F039E029AE7
:103EB000C0F25B03DB1956F8087F92B242F10002B0
:103EC0007568DB1BB446AA41C0F084820D9B00EBF1
:103ED000C002049D1A9E013172441B78D370109B5E
:103EE0001B78957026AD1371AEF80010634617E08D
:103EF000024692B28A4296D000EBC001029B019F1B
:103F0000B6463144B1F80920D1F805109BB2C91B5F
:103F100072EB030180F05E82039B1A9E26AD08338C
:103F2000079900EBC000019F70440A468988A0F8F9
:103F300009101168C0F805100298D3E9001280B288
:103F4000C91B72EB000138BFC3E90070012771E79C
:103F50008BF800301CF8008099F800000F2800F260
:103F6000CF820227DFE810F0100010002800450083
:103F700058006D0082009700AC00C700DF00FC0015
:103F80001F017001760199010027B8F1FE0F00F0C2
:103F90008782B8F1FD0F40F0B48202200027129909
:103FA00089F8000022980770FD2008701B980146D0
:103FB000007800F0FE0080E2229880F800801898D7
:103FC00080F800E0BAF8000088EA000181EA0111F7
:103FD000C9B20A0982EAC102090241EA102050402E
:103FE000AAF800001B980078C00740F06C820320FC
:103FF00084E21C98B8F1020F80F80080C0F06C8257
:1040000021980027014600780130087001208BF8C4
:10401000007089F8000074E2119880F80080BAF806
:10402000000088EA000181EA0111C9B20A0982EAA6
:10403000C102090241EA10205040AAF80000052000
:104040005CE2149880F80080BAF8000088EA000169
:1040500081EA0111C9B20A0982EAC102090241EAF0
:1040600010205040AAF80000062047E20D9880F882
:104070000080BAF8000088EA000181EA0111C9B2A3
:104080000A0982EAC102090241EA10205040AAF856
:104090000000072032E2109880F80080BAF8000093
:1040A00088EA000181EA0111C9B20A0982EAC10263
:1040B000090241EA10205040AAF8000008201DE241
:1040C0001D9880F802E0A0F80080BAF8000088EAA5
:1040D000000181EA0111C9B20A0982EAC10209029A
:1040E00041EA10205040AAF800001B980078C00751
:1040F0002FD1092002E21D980146008840EA0820DD
:104100000880BAF8000088EA000181EA0111C9B20A
:104110000A0982EAC102090241EA10205040AAF8C5
:1041200000000A20EAE11D980146807840EA080074
:104130008870BAF8000088EA000181EA0111C9B26A
:104140000A0982EAC102090241EA10205040AAF895
:1041500000002298007800280CBF0C200B20CDE135
:104160001898002702460078411C11700E9AC9B2B7
:1041700002F80080BAF8000088EA000282EA02121F
:10418000D2B2130983EAC203120242EA1020584055
:104190000023AAF8000022980078814204BF0C2076
:1041A00089F80000ADE11D980025A822014680781D
:1041B000098841EA00406B1C99184EF20C764908B8
:1041C000C0F2020601EB410756F82770874233D947
:1041D0004A1E954280F0258129444EF20C7649080A
:1041E000C0F2020601EB410756F82770874223D937
:1041F0004A1E954280F0158129444EF20C764908FA
:10420000C0F2020601EB410756F82770874213D926
:104210004A1E954280F0058129444EF20C764908E9
:10422000C0F2020601EB410756F82770874203D916
:104230004A1E9542C0D3F4E01A9E0D46874280F094
:10424000F1809542B7D3EDE09AF80100022780454E
:1042500008BF012719988BF8007080F800801C981F
:104260000078C00740F0CB801398006800283FF426
:10427000E3AD026B62B11D9801468078098841EA7E
:104280000041584690479BF8007000287FF4D4AD59
:10429000022F7FF496AD0227CEE5159802460078EE
:1042A000C0F10D010138514410F0FF0F107081F87A
:1042B000168140F025811398016800293FF483ADF1
:1042C000089871AE2022006806904EF26760CDE932
:1042D00071EE03911031C6F6092073904AF685609D
:1042E000CBF6673074904FF27230C3F66E40759023
:1042F0004FF23A50CAF24F50769045F27F20C5F205
:104300000E10779046F68C00C9F6053078904DF681
:10431000AB10C1F6837079904CF61950C5F6E030B9
:104320007A9030461CF058FA22981299007800F1E1
:104330000A0230461CF050FA1699304602221CF050
:104340004BFA0B99304607221CF046FA8020719DEB
:1043500047218DF82C020598FCF78AFB37208BA9A2
:104360002A0AA0EBD50000F03F000F18FA712A0CC2
:104370003D72BA712A0E7A71729A130A3A71FB7001
:10438000130C120EBB707A7000F1090230461CF05B
:1043900023FA9DF8CF319DF8CC019DF8CD119DF801
:1043A000CE218DF8BE318DF8BF218DF8C0118DF86A
:1043B000C1019DF8D301099906228DF8C2019DF82B
:1043C000D2018DF8C3010DF5DF70FCF7AEFA0028BD
:1043D0003FF4FBAC139826AD0068026B002A3FF453
:1043E00027AD1D9801468078098841EA004158466A
:1043F000904700284FF0030718BF012719E50F2049
:104400001599022F89F800004FF00D0008707FF415
:10441000D4AC229800788DF89B00219880F800E0B9
:1044200035E51A9E4EF20C7105EB4507002300227C
:10443000C0F202010D4651F82710814204BF05EB7E
:1044400087021379BAF800707B4083EA0313DBB26A
:104450001D0985EAC3051B0243EA17236B40AAF82E
:104460000030DBB298454FF00E0308BF0D238142A8
:1044700089F80030169B83F800800DD11898517987
:104480000278914208D90E98891A1044FCF7F0FA84
:104490000DF18E0C4FF0000E002726AD002330E00A
:1044A0000220129989F8000022980770FE200870F7
:1044B0001B980146007840F0010008704FF6FF702D
:1044C000AAF800001DE01C980027077011980770DB
:1044D000052089F8000014E0BAF8000088EA00011D
:1044E00081EA0111C9B20A0982EAC102090241EA5C
:1044F00010205040AAF80000042000BF89F80000F6
:104500000027229800788DF89B00219880F800E021
:1045100007F0FE00022819D121990120B8F1FD0F02
:1045200008708BF800E089F800002BD1022089F890
:104530000000229880F800E04FF6FF70AAF8000013
:104540000134E0B2B042FFF403AD20E0D7B11F98D0
:1045500001468078098841EA00401E9988420FD2BE
:104560004DF68011C0F2020151F8202042B1179897
:104570002946C0B2904700230DF18E0C4FF0000E7B
:10458000012020900134E0B2B042FFF4E1AC209869
:1045900040F6A036179FC2F20006C0070AD10137C5
:1045A000042FFFF499AB05E00DF18E0C0137042FB9
:1045B000FFF492AB0DF51D7DBDE8F08F10B540F610
:1045C000A034C2F20004E06820B1804700281CBF7C
:1045D000012010BDA06920B1804700281CBF012028
:1045E00010BD606A08B1804718B9206B18B18047C8
:1045F00008B1012010BD002010BD00002DE9F04FD2
:10460000CBB040F6A036C2F20006308801303080D0
:1046100080B2632873D9002002A9308001F1090516
:104620007168C1B14FF6FF7102AC092209230591EF
:104630000221C0F20031069103218DF81C10A870F0
:10464000288032200021009020461AF0F1F870688E
:1046500021461BF0CDFC3069C8B14FF6FF7002ACAB
:1046600001210922092305900220C0F200300690A2
:1046700003208DF81C000020A870288032200090B4
:1046800020461AF0D5F8306921461BF0B1FCF069DC
:10469000C8B14FF6FF7002AC022109220923059030
:1046A0000220C0F20030069003208DF81C0000208C
:1046B000A87028803220009020461AF0B9F8F069DE
:1046C00021461BF095FCB06AC8B14FF6FF7002ACF2
:1046D00003210922092305900220C0F20030069030
:1046E00003208DF81C000020A87028803220009044
:1046F00020461AF09DF8B06A21461BF079FC42F67C
:10470000DA694DF60C6B04364FF0000A02AC002754
:104710000025C2F20009C0F2020B00BF3068002879
:1047200000F0048139F80700A0B109EB0701CB784C
:104730008A780133CB70DBB293420BD35BF8202035
:1047400081F803A0E8B22146904718B130682146AD
:104750001BF04EFC09EB0708B8F80400B0B198F85C
:10476000072098F80610013288F80720D2B28A4252
:104770000CD35BF82020E8B2214688F807A09047C8
:1047800020B1306821461BF033FC00BFB8F80800A8
:10479000B0B198F80B2098F80A10013288F80B2075
:1047A000D2B28A420CD35BF82020E8B2214688F8C6
:1047B0000BA0904720B1306821461BF019FC00BFC8
:1047C000B8F80C00B0B198F80F2098F80E1001322C
:1047D00088F80F20D2B28A420CD35BF82020E8B2CE
:1047E000214688F80FA0904720B1306821461BF081
:1047F000FFFB00BFB8F81000B0B198F8132098F88C
:104800001210013288F81320D2B28A420CD35BF81E
:104810002020E8B2214688F813A0904720B13068E4
:1048200021461BF0E5FB00BFB8F81400B0B198F8C2
:10483000172098F81610013288F81720D2B28A4251
:104840000CD35BF82020E8B2214688F817A09047E7
:1048500020B1306821461BF0CBFB00BFB8F8180030
:10486000B0B198F81B2098F81A10013288F81B2074
:10487000D2B28A420CD35BF82020E8B2214688F8F5
:104880001BA0904720B1306821461BF0B1FB00BF50
:10489000B8F81C00B0B198F81F2098F81E1001322B
:1048A00088F81F20D2B28A420CD35BF82020E8B2ED
:1048B000214688F81FA0904720B1306821461BF0A0
:1048C00097FB00BFB8F82000B0B198F8232098F803
:1048D0002210013288F82320D2B28A420CD35BF82E
:1048E0002020E8B2214688F823A0904720B1306804
:1048F00021461BF07DFB00BFB8F82400B0B198F84A
:10490000272098F82610013288F82720D2B28A4250
:104910000CD35BF82020E8B2214688F827A0904706
:1049200020B1306821461BF063FB00BF28370C36EE
:104930000135A02F7FF4F2AE40F2CE09C2F2000999
:10494000B9F90000B0F1FF3F40F3FD804EF2506135
:1049500040F6A03A04F1090604F11407C0F202017E
:10496000C2F2000AB1F80080DAF80410A9B34EF2DE
:104970009824C0EBC000C0F2020404EB8005A869D3
:104980008047B9F900008DED050AADF81880D5F81B
:104990000110D5F80520D5F80930D5F80D50ADF83F
:1049A0001A00C0EBC000BB607A603960FD60002176
:1049B0001922192314F8200002AC8DF82C000020D5
:1049C000B07016203080DC200090204619F030FFB7
:1049D000DAF8040021461BF00BFBDAF81000B8B33C
:1049E000B9F900004EF29824C0F20204C0EBC000F6
:1049F00004EB8005A8698047B9F900008DED050A30
:104A0000ADF81880D5F80110D5F80520D5F8093093
:104A1000D5F80D50ADF81A00C0EBC000BB607A604D
:104A20003960FD6001211922192314F8200002AC1D
:104A30008DF82C000020B07016203080DC20009013
:104A4000204619F0F5FEDAF8100021461BF0D0FAE6
:104A5000DAF81C00B8B3B9F900004EF29824C0F29D
:104A60000204C0EBC00004EB8005A8698047B9F9D7
:104A700000008DED050AADF81880D5F80110D5F8C5
:104A80000520D5F80930D5F80D50ADF81A00C0EB67
:104A9000C000BB607A603960FD60022119221923D1
:104AA00014F8200002AC8DF82C000020B070162005
:104AB0003080DC200090204619F0BAFEDAF81C00A5
:104AC00021461BF095FADAF82800B8B3B9F90000CE
:104AD0004EF29824C0F20204C0EBC00004EB800543
:104AE000A8698047B9F900008DED050AADF8188076
:104AF000D5F80110D5F80520D5F80930D5F80D50B6
:104B0000ADF81A00C0EBC000BB607A603960FD6090
:104B100003211922192314F8200002AC8DF82C006F
:104B20000020B07016203080DC200090204619F064
:104B30007FFEDAF8280021461BF05AFAB9F8000087
:104B40000138A9F800004BB0BDE8F08F10B52DED8D
:104B50000A8B90ED081A04460021002030EE410A2D
:104B6000B5EEC00AF1EE10FAC8BF012194F8342066
:104B7000914208D19FED521A94ED0E2A32EE011A9D
:104B800084ED0E1A0AE0B5EEC00A9FED4C1AA06340
:104B9000F1EE10FAC8BF012084F8340021EE012A9A
:104BA000B7EE007A9FED473AF2EE0E0A9FED464AC5
:104BB00094ED005A94ED016A9FED45CA21EE021A68
:104BC000F0EE471A9FED412A41EE031A84EE053AB2
:104BD000F4EEE01A01EE027AF1EE10FAC8BFF0EE40
:104BE000601AF4EEC31AF1EE10FAB4EEE07AC8BF20
:104BF000F0EE431AF1EE10FAC8BFB0EE607A25EE7F
:104C0000211A26EE072A20EE01BA20EE029A8BEE38
:104C10000C8AB0EE490A20F0DAFDB0EE40AAB0EE00
:104C2000480A20F0D4FDB4EEC0AAF1EE10FA02DD7D
:104C30009FED22BA09E0B9EE001A9FED210AB0EE0D
:104C4000498A29EE011A01EE00BA94ED092A94ED81
:104C50000A3A94ED0B4A94ED061AB0EE4B6A94EDC5
:104C6000050A9FED175A9FED1B7ADFED1B0A4DF2E7
:104C70000A7008EE0C6AC3F6A3303BEE022A3BEE44
:104C8000044A3BEE033A36EE000A38EE011A20637E
:104C900008EE052A08EE074A08EE203A84ED050AD8
:104CA00084ED061A84ED082A84ED093A84ED0A4A57
:104CB00084ED0B0ABDEC0A8B10BD00BF00000000A4
:104CC0000AD7A33B0000FA436666663F00409C4556
:104CD0000AD7A33C8FC2753C0AD7233C80B54FF45A
:104CE0008061FBF7C5FE80BD70B555180446082DE0
:104CF00027D832B30E4600BF04EBC1108021FBF76A
:104D0000B7FE701CC0B285421BD904EBC0108021D5
:104D1000FBF7AEFEB01CC0B2854212D904EBC01046
:104D20008021FBF7A5FEF01CC0B2854298BF70BD84
:104D300004EBC0108021FBF79BFE0436F1B28D42DC
:104D4000DAD870BD2DE9F04F81B0062A00F28E80CE
:104D50004FF0000E5FFA8EFC11F80C40002C00F0B2
:104D600081800EF101045FFA84FC11F80C50002DD3
:104D700077D00EF102045FFA84FC11F80C50002D7C
:104D80006FD00EF103045FFA84FC11F80C50002D73
:104D900067D00EF104045FFA84FC11F80C50002D6A
:104DA0005FD00EF105045FFA84FC11F80C50002D61
:104DB00057D00EF106045FFA84FC11F80C50002D58
:104DC0004FD00EF107045FFA84FC11F80C50002D4F
:104DD00047D00EF108045FFA84FC11F80C50002D46
:104DE0003FD00EF109045FFA84FC11F80C50C5B3F2
:104DF0000EF10A045FFA84FC11F80C508DB30EF129
:104E00000B045FFA84FC11F80C5055B30EF10C043E
:104E10005FFA84FC11F80C501DB30EF10D045FFA1B
:104E200084FC11F80C50E5B10EF10E045FFA84FC1D
:104E300011F80C50ADB10EF10F045FFA84FC11F8BB
:104E40000C5075B10EF110045FFA84FC11F80C508F
:104E50003DB10EF1110E5FFA8EF7FF2F7FF47AAF9E
:104E600004E0A64603EBCC04802C03D9002001B05B
:104E7000BDE8F08F5FEA0E6700F0E480ACF101045A
:104E8000551C0CF0030E032C009505D24FF0000CBE
:104E9000BEF1000F77D1D5E000EBC5174CF2615A97
:104EA000ACEB0E094FF0000C1F44C0F2020A07F1F0
:104EB000180600BF11F80C40203CE4B25A2C88BF01
:104EC00000240AEB04152401AF68D5F804B0ED689E
:104ED0005AF8044046F8145C46F8187C46F8984C9A
:104EE00001EB0C0446F894BC0CF1040C6578203DF1
:104EF000EDB25A2D88BF00250AEB05172D01D7F812
:104F00000880D7F804B0FF685AF8055046F80C7CC2
:104F100046F8108C46F88CBC46F8905CA578203D8D
:104F2000EDB25A2D88BF00250AEB05172D01D7F8E1
:104F300008B0D7F80480FF685AF8055046F8047C9A
:104F400046F808BC46F8848C46F8885CE478203C37
:104F5000E4B25A2C88BF0024E1450AEB04154FEA5D
:104F60000414AF68D5F80480ED685AF80440756001
:104F7000376046F87C8C46F8804C06F1200699D1C3
:104F8000BEF1000F5ED011F80C404CF2615803EBFB
:104F9000CC0700EBC219C0F20208203CE4B25A2C44
:104FA00088BF0024BEF1010F4FEA041608EB041479
:104FB00058F806606568A268E46849F8076009EB7C
:104FC00007067560009D00EBC510C25100EB07029B
:104FD000546037D00CF101028C5C03EBC202203C20
:104FE000E4B25A2C88BF0024BEF1020F4FEA041528
:104FF00008EB041458F805506668A768E46849F897
:10500000025009EB02056E6087500244546019D0CB
:105010000CF10202895C03EBC20209EB02032039A6
:10502000C9B25A2988BF00210F0108EB011158F8B5
:1050300007708E6849F802704F68C9685F608650D3
:1050400010444160012001B0BDE8F08F2DE9F0432C
:10505000072A00F290804FF0000E5FFA8EFC11F8E4
:105060000C40002C00F081800EF101045FFA84FCFA
:1050700011F80C50002D77D00EF102045FFA84FC79
:1050800011F80C50002D6FD00EF103045FFA84FC70
:1050900011F80C50002D67D00EF104045FFA84FC67
:1050A00011F80C50002D5FD00EF105045FFA84FC5E
:1050B00011F80C50002D57D00EF106045FFA84FC55
:1050C00011F80C50002D4FD00EF107045FFA84FC4C
:1050D00011F80C50002D47D00EF108045FFA84FC43
:1050E00011F80C50002D3FD00EF109045FFA84FC3A
:1050F00011F80C50C5B30EF10A045FFA84FC11F8E4
:105100000C508DB30EF10B045FFA84FC11F80C50B7
:1051100055B30EF10C045FFA84FC11F80C501DB36A
:105120000EF10D045FFA84FC11F80C50E5B10EF19C
:105130000E045FFA84FC11F80C50ADB10EF10F04AF
:105140005FFA84FC11F80C5075B10EF110045FFA8F
:1051500084FC11F80C503DB10EF1110E5FFA8EF780
:10516000FF2F7FF47AAF06E0A6460CEB4C0403EB6E
:105170004404802C02D90020BDE8F0835FEA0E666B
:1051800000F09F80ACF101040CF0030E032C05D25B
:105190004FF0000CBEF1000F5CD192E000EBC216A4
:1051A0004CF65139ACEB0E084FF0000C1E44C0F227
:1051B000020906F1120500BF11F80C70203FFFB282
:1051C0005A2F88BF002707EB470759F8174045F8C3
:1051D000124C09EB4704A48825F80E4C01EB0C0493
:1051E0000CF1040C6778203FFFB25A2F88BF0027CC
:1051F00007EB470759F8176045F80C6C09EB4706B1
:10520000B68825F8086CA678203EF6B25A2E88BFDC
:10521000002606EB460659F8167009EB4606B688D6
:1052200045F8067C25F8026CE478203CE4B25A2C60
:1052300088BF0024E04504EB440459F8146009EBEE
:105240004404A4882E60AC8005F11805B4D1BEF1E9
:10525000000F36D011F80C4000EBC2100CEB4C02E2
:1052600003EB4202203CE4B25A2C88BF0024BEF17A
:10527000010F04EB44054CF65134C0F2020454F81B
:10528000156004EB4505AD8886500244958018D022
:105290000CF101028D5C02EB420203EB4202203D65
:1052A000EDB25A2D88BF0025BEF1020F05EB450572
:1052B00054F8156004EB4505AD888650024495808E
:1052C00002D10120BDE8F0830CF10202895C02EBFF
:1052D000420203EB42022039C9B25A2988BF002199
:1052E00001EB410154F8117004EB410189888750AA
:1052F000104481800120BDE8F083000019B902F15B
:105300004003802B01D900207047B0B54CF674558E
:1053100000EBC1108418C0F2020540222046294645
:10532000FBF72FFB04F1800005F140014022FBF761
:1053300028FB04F5807005F180014022FBF721FB7A
:1053400004F5C07005F1C0014022FBF71AFB04F51B
:10535000007005F580714022FBF713FB04F5207007
:1053600005F5A0714022FBF70CFB04F5407005F534
:10537000C0714022FBF705FB04F5607005F5E07194
:105380004022FBF7FEFA0120B0BD00000729844649
:1053900084BF00207047931D0020802B88BF70477A
:1053A00000230CEBC111C1F618038B501144888007
:1053B00001207047072A04D803F1060CBCF1800FC6
:1053C00001D90020704700EBC2100029184409D011
:1053D0004CF27001818040F20461C1F6034101602A
:1053E0000120704744F22421818042F24241C1F6FB
:1053F000180101600120704770B52DED048B044643
:1054000010EE900AB0EE608AB0EE409A25F0E8FA0D
:105410009FED2D0B05460E4653EC102B25F039FB66
:10542000002845D19FED2A0B2846314653EC102B1E
:1054300024F0D8FC054619EE100A0E4625F0D0FAE5
:1054400002460B462846314625F01CFBA8BB9FEDC3
:10545000220A89EE081A80EE010A22F0ABFC9FEDC9
:105460001F1AB7EE002ABFEE004A012020EE011AF3
:1054700020EE000A31EE023A32EE411A30EE044AD2
:1054800030EE033A30EE011A82EE032A34EE043A8B
:1054900020EE020A23EE023A21EE021A84ED010AFE
:1054A00084ED023A84ED031A2070BDEC048B70BDCC
:1054B00000202070BDEC048B70BD00202070BDEC7E
:1054C000048B70BD00BF00BF2D431CEBE2361A3FBA
:1054D000CDCCCCCCCCCC0040DB0F4940F304B53F65
:1054E00070B52DED068B044610EE900AB0EE608A82
:1054F000B0EE409A25F074FA9FED3F0B05460E463C
:1055000053EC102B25F0C5FA002870D19FED3C0B11
:105510002846314653EC102B24F064FC054619EE66
:10552000100A0E4625F05CFA02460B462846314624
:1055300025F0B6FA00285AD09FED330A89EE081AF2
:1055400080EE018AB0EE480A22F034FC9FED2F1A5B
:10555000B7EE009ABFEE00AA0120207020EE011ADB
:1055600020EE000A31EE092A30EE0A3A39EE411AED
:1055700030EE022A33EE033A30EE011A89EE022AA7
:1055800020EE020A23EE023A21EE021A84ED010A0D
:10559000B0EE480A84ED023A84ED031A22F00AFCC8
:1055A0009FED1B1A20EE011A20EE000A31EE092AA7
:1055B00030EE0A3A39EE411A30EE022A33EE033A5F
:1055C00030EE011A89EE022A20EE020A23EE023A98
:1055D00021EE021A84ED040A84ED053A84ED061AE0
:1055E0002078002818BF0120BDEC068B70BD00207C
:1055F0002070BDEC068B70BD2D431CEBE2361A3FCC
:10560000CDCCCCCCCCCC0040DB0F49405E83EC3F12
:1056100015EF433F90F87010002900F0898090ED5D
:105620000C1A90ED0D3A90ED004A90ED015AD0ED34
:105630000E0A90ED026AD0ED0F1A90ED037A31EE6A
:10564000012A32EE002A33EE022A90ED103A24EEBF
:10565000022A90ED114A00EEC52A01EEC62A90ED0D
:10566000126A33EE035AD0ED051A32EE055A34EEC3
:10567000054A90ED045A27EE044A90ED137A80ED26
:105680000C0A80ED0D1A80ED0E2AC0ED0F0A80ED98
:10569000102A80ED113A06EE454A07EE614A80ED88
:1056A000124A80ED136A90ED160A90ED171A80EDFC
:1056B000170A90ED146A90ED157A90ED062A90ED98
:1056C000073A90ED085A76EE060A74EE200A37EE95
:1056D000207A22EE072A00EE432A01EE452A80EDC9
:1056E000162A80ED156A80ED144A90ED1A1A90ED95
:1056F0001B3A80ED1B1A90ED186A90ED197A90ED27
:10570000090A90ED0A4A90ED0B5A76EE060A72EEFF
:10571000200A37EE207A20EE070A01EE440A03EE53
:10572000450A80ED1A0A80ED196A80ED182A704743
:1057300080ED0C0A80ED0D0A80ED0E0A80ED0F0A57
:1057400080ED100A80ED110A80ED120A80ED130A37
:1057500080ED140A80ED150A80ED160A80ED170A17
:1057600080ED180A80ED190A80ED1A0A80ED1B0AF7
:10577000704700000000000070B52DED068B044658
:1057800010EE900AB0EE608AB0EE409A25F028F94B
:105790009FED690B05460E4653EC102B25F079F969
:1057A000002840F0BA809FED660B2846314653EC46
:1057B000102B24F017FB054619EE100A0E4625F0B3
:1057C0000FF902460B462846314625F069F90028B4
:1057D00000F0AA809FED5C0A89EE081A80EE018A2B
:1057E000B0EE480A22F0E6FA9FED581AB7EE009A9A
:1057F000BFEE00AA0120254620EE011A20EE000A85
:1058000031EE092A30EE0A3A39EE411A30EE022A18
:1058100033EE033A30EE011A89EE022A20EE020A34
:1058200023EE023A21EE021A84ED000AB0EE480A95
:1058300084ED013A84ED021A05F8700F22F0BAFAED
:105840009FED431A20EE011A20EE000A31EE092ADC
:1058500030EE0A3A39EE411A30EE022A33EE033ABC
:1058600030EE011A89EE022A20EE020A23EE023AF5
:1058700021EE021A84ED030AB0EE480A84ED043AE0
:1058800084ED051A22F096FA9FED321A20EE011AE5
:1058900020EE000A31EE092A30EE0A3A39EE411ABA
:1058A00030EE022A33EE033A30EE011A89EE022A74
:1058B00020EE020A23EE023A21EE021A84ED060AD5
:1058C000B0EE480A84ED073A84ED081A22F072FA25
:1058D0009FED211A20EE011A20EE000A31EE092A6E
:1058E00030EE0A3A39EE411A30EE022A33EE033A2C
:1058F00030EE011A89EE022A20EE020A23EE023A65
:1059000021EE021A84ED090A84ED0A3A84ED0B1A9D
:105910002C462078BDEC068B70BD002004F8700F7B
:105920002078BDEC068B70BD002004F8700F207845
:10593000BDEC068B70BD00BF2D431CEBE2361A3F59
:10594000CDCCCCCCCCCC0040DB0F4940BE14FB3FCF
:1059500031DBD43FD9398E3FBCC5C73E00000000C3
:105960002DE9F04F81B02DED108B88B04CF2000482
:105970004FF48861C4F2000420461DF047FF204622
:105980001DF076FF204620211DF040FF40F6204804
:10599000C2F20008B8F80600E0B340F2CA3188420B
:1059A00008D30020A8F80600A06910F0100F40F0FE
:1059B000DE8134E0A16911F0200F2BD14FF2F931D3
:1059C000C0F2020183B2421CCB5CA8F8062023601F
:1059D000A36913F0200F1DD192B2831C8A5CA8F832
:1059E00006302260A26912F0200F13D19BB2C21CB4
:1059F000CB5CA8F806202360A36913F0200F09D11F
:105A000092B204308A5CA8F806002260A26912F003
:105A1000200FD7D0A06910F0100F40F0A8814EF2EF
:105A200052604CF2012940F28C0B41F6D82ADFED8E
:105A3000D88A9FEDD39B9FEDD4FB9FEDD68A00269D
:105A4000F0EE08CAC0F20200C0F20109C2F2000B77
:105A5000C2F2000A057800BF2768284600F052FB12
:105A6000407818B9DBF8040048455FD1D8F80C102D
:105A7000481C0AF80170C8F80C0098F80120032AA5
:105A800054D8DFE802F002153349F8B2002900F0DB
:105A9000E680622840F064810120C8F80C6088F834
:105AA0000360A8F80100A06910F0100FD4D05EE1E7
:105AB00098F8021098F803200428394488F8021056
:105AC000114488F8031031D1BAF80200011D0138E1
:105AD00080B2A8F80810902800F24081022088F8CF
